:1000000018050020C10000002101000021010000AE
:10001000210100002101000021010000000000007A
:1000200000000000000000000000000021010000AE
:10003000210100000000000021010000210100005A
:100040002101000021010000210100002101000028
:100050002101000021010000210100002101000018
:100060002101000021010000210100002101000008
:1000700021010000210100002101000021010000F8
:1000800021010000210100002101000021010000E8
:100090002101000021010000210100005114000095
:1000A00021010000210100002101000021010000C8
:1000B00021010000210100002101000021010000B8
:1000C00080B582B000AF114B7B60114B3B6007E005
:1000D0003B681A1D3A607A68111D796012681A60CF
:1000E0003A680C4B9A42F3D30B4B3B6004E03B68FD
:1000F0001A1D3A6000221A603A68084B9A42F6D3F9
:1001000000F0A4F8BD4602B080BDC046B81900009A
:1001100000000020DC000020DC000020180100208E
:1001200080B500AFFEE7C04680B582B000AF021CCC
:10013000FB1D1A70064BFA1D1278111C1F220A4073
:10014000012191400A1C1A60BD4602B080BDC04624
:1001500000E100E080B500AFA023DA0580235B005A
:100160000021D150BD4680BD80B500AF11E0A02375
:10017000DA0580235B005921D150A023DA058023C2
:100180005B001621D150A023DA0580235B00882173
:10019000D150A023DA0580235B00D358012BE6D190
:1001A000BD4680BD80B500AFA023DB05A022D205EF
:1001B000526C03210A435A64042000F0E3F9102032
:1001C00000F0F0FA0720002100F026F9012000F0ED
:1001D000D9F9012000F0E6FA184B184A926950212B
:1001E0000A439A61164B181C00F0C4F8154B181CF2
:1001F00000F0D8F9144B181C00F0D4F9114B181C5E
:100200000021002200F038F90F4B181C0021202299
:1002100000F032F9A023DB0503225A63A023DB059B
:1002200000229A63A023DB05802292031A6508202E
:100230000F21002200F080F8BD4680BD00C00050B4
:1002400000A24A04103D80579B3C004080B500AF9F
:10025000FFF78AFFFFF7A6FFFFF77CFF01F0B6F874
:10026000064A074B101C191C002200F035FC00F058
:1002700063FC1720FFF758FFFEE7C0468C00002004
:10028000E115000080B588B000AF0023BB613A1DC6
:10029000254B111C1A1C0423081C111C1A1C01F0EC
:1002A0009FFA224B1B6A7B617A69A023DB02134011
:1002B00001D0002334E07A6980231B03134002D06D
:1002C0001B4BFB6101E01B4BFB617A6980239B02A6
:1002D000134001D0FB6923E07A69C0231B0213405D
:1002E0009B0B3A1DD35C3B617B69DB05DB0D023365
:1002F000FB607A69F8239B0113405B0A0233BB6001
:10030000FB699B08FA685A43111CBB683A6953435E
:10031000081C191C01F0D2F9031C9B00BB61BB69CE
:10032000181CBD4608B080BDE8180000000200504F
:1003300000805101001BB70080B584B000AFF860A9
:10034000B9607A60094BBA6810210A435A62084BB7
:10035000181C00F027F9064AFB68101C191C002223
:1003600000F08AF8BD4604B080BDC04600020050CF
:100370000600206680B582B000AF78607B68224AB4
:10038000934201D9204B7B607B68204A934201D87D
:100390001F4B7B601F4B1F4A126804210A431A60DF
:1003A000102000F0FFF91B4B1A4A126907218A43FB
:1003B0001A61184B174A92690F218A439A6100F01B
:1003C00069FA144B1B680122134008D07B685B005C
:1003D0000020191C00F004F9031C7B6009E07B6815
:1003E0005A0080231B03181C111C00F0F9F8031C91
:1003F0007B600220012100F00FF87B685B08181C6D
:10040000BD4602B080BDC04600A24A043F787D01CF
:1004100040787D010002005080B582B000AF786066
:100420003960144B134A126804210A431A60C0460B
:10043000104BDB6810221340FAD00E4B0D4A1269A4
:1004400007210A431A610B4B0A4A92690F218A431A
:10045000111C3A680A439A61064B064A1269072141
:100460008A43111C7A680A431A6100F013FABD46E8
:1004700002B080BD0002005090B58BB000AFF860B4
:10048000B9607A6000237B6200233B621423FB186F
:10049000344A13CA13C3FB685B0E072213403DD0D6
:1004A000FB681B0F03221A401423FB189200D35839
:1004B0002D4A944663447B627B6A7A6A1268F968C3
:1004C000490E07200840F968090D0C1C1F21214026
:1004D0008840011CC9431140BA680A431A60FB688E
:1004E000224A93420BD1224B214AD2692149114021
:1004F000B8688022520002400A43DA610EE0FB68CD
:100500001D4A93420AD11A4B194AD2691B4911401C
:10051000B8688022920002400A43DA61FB689B0AB5
:10052000FF2213401BD0FB689B0C03221340144A8C
:10053000944663449B003B623B6A3A6A1268F968DE
:10054000890AFF200840F96849090C1C1F21214035
:100550008840011CC94311407A680A431A60BD46AD
:100560000BB090BDEC180000100200501400C057F2
:1005700000020050FFFEFFFF1500E057FFFDFFFFE8
:100580008600001480B582B000AF7860044B044A46
:1005900011687A680A431A60BD4602B080BDC04641
:1005A0000002005080B582B000AF78607B689B0F7E
:1005B0000A4A944663449B007A68920F07498C4626
:1005C00062449200126879681F200140012088402F
:1005D000011C0A431A60BD4602B080BD81000014B0
:1005E00080B58EB000AF78603960614B80225202D6
:1005F0001A625F4B5E4A126805210A431A60112095
:1006000000F0D0F87B68002B06D100237B62594BA9
:100610007B6302233B6306E080231B037B62564B14
:100620007B6304233B633B68544A934206D83B6890
:10063000534A934202D90023BB621CE03B68504AF4
:10064000934209D83B684F4A934205D90123BB62C4
:100650003B685B003B600EE03B684A4A934200D92E
:1006600072E03B68484A934200D86DE00323BB62C6
:100670003B689B003B6001235B423B620023BB6104
:100680000023FB6140E0786B396B01F017F8031C25
:100690007B617B693D4A934233D97B693C4A9342F3
:1006A0002FD80223FB6228E07B69FA6A53433B613F
:1006B0003B69384A93421DD93B69304A934219D865
:1006C0003A693B689A4203D93A693B68D31A02E017
:1006D0003A683B69D31AFB60FA683B6A9A4209D2CE
:1006E000FB683B623B6BBB61FB6AFB613B6A002BB7
:1006F00000D106E0FB6A0133FB62FB6A264A9342A3
:10070000D2D93B6B01333B633B6B212BBBD9184BDD
:10071000BA6A91037A6A1143BA69023A52021143E2
:10072000FA69023A0A431A62042000F03BF8BB6AF5
:100730000133BA695343786B191C00F0BFFF031CE7
:100740001A1CFB6953430FE07B68002B03D1084B55
:10075000124A1A6202E0064B114A1A62042000F0A3
:1007600021F8FFF78FFD031C181CBD460EB080BD9D
:1007700000020050001BB7000080510100C2EB0BCB
:1007800000E1F50580F0FA023F787D01006A18006B
:10079000FF23F400FFE0F505010200002EC2000077
:1007A0006FD6000080B584B000AF78600A4BFB6064
:1007B00006E0FB685A1EFA60002B01DC002307E00C
:1007C000064BDB687A681A407B689A42F1D10123B4
:1007D000181CBD4604B080BD90D00300000200503C
:1007E00080B588B000AF0023BB613A1D254B111CBA
:1007F0001A1C0423081C111C1A1C00F0F1FF224BC8
:100800001B6A7B617A69A023DB02134001D00023BD
:1008100034E07A6980231B03134002D01B4BFB6139
:1008200001E01B4BFB617A6980239B02134001D0DE
:10083000FB6923E07A69C0231B0213409B0B3A1D1E
:10084000D35C3B617B69DB05DB0D0233FB607A69BE
:10085000F8239B0113405B0A0233BB60FB699B08D2
:10086000FA685A43111CBB683A695343081C191CA7
:1008700000F024FF031C9B00BB61BB69181CBD4634
:1008800008B080BDF818000000020050008051013F
:10089000001BB70080B584B000AFFFF7A1FF021CBA
:1008A0001C4B1A601C4B1B6907221340BB60BB68C2
:1008B000022B03D1174B1B68FB600CE0BB68012BBC
:1008C00004D1144B1B685B08FB6004E0134BBA684F
:1008D0009200D358FB60104B9B690F2213400133E9
:1008E0007B60F868796800F0E9FE031C1A1C0C4B69
:1008F0001A600B4B1B680B4A94466344181C0A4948
:1009000000F0DCFE031C1A1C084B1A60BD4604B044
:1009100080BDC046AC00002000020050B0000020A6
:10092000A400002020A1070040420F00A8000020E2
:1009300080B584B000AFF860B9607A6007E0FB680A
:100940005A1CFA60BA68511CB96012781A707B6838
:100950005A1E7A60002BF2D1BD4604B080BDC0465D
:1009600080B586B000AF021CFB1D1A7000237B61AE
:1009700021E07B691B01134A944663443B613B6958
:100980001B68FB60FB680F221A40FB1D1B789A4214
:100990000ED17B691B010C4A944663443B613B6961
:1009A0001B68FB603B69FA6802210A431A6005E094
:1009B0007B6901337B617B69072BDADDBD4606B0BD
:1009C00080BDC046080506400C05064080B586B0CF
:1009D00000AF021CFB1D1A7000237B6121E07B69C4
:1009E0001B01134A944663443B613B691B68FB60EF
:1009F000FB680F221A40FB1D1B789A420ED17B69BF
:100A00001B010C4A944663443B613B691B68FB60D5
:100A10003B69FA6802218A431A6005E07B69013369
:100A20007B617B69072BDADDBD4606B080BDC04621
:100A3000080506400C05064080B586B000AF021CD4
:100A4000FB1D1A7000233B6119E03B691B01114A31
:100A5000944663447B617B691B68FB60FB680F22E3
:100A60001A40FB1D1B789A4206D13B691B010A4ABA
:100A7000944663447B6105E03B6901333B613B691C
:100A8000072BE2DD7B691B6802221340181CBD4660
:100A900006B080BD080506400C05064080B582B052
:100AA00000AF78600A4A0B4B1B6879684B43536070
:100AB000074B00229A60064B05221A60C046044B81
:100AC0001A6880235B021340F9D0BD4602B080BD96
:100AD00010E000E0A800002080B584B000AFF8600E
:100AE000B9607A600F4BFA681A600F4BBA681A60E7
:100AF0000E4B7A681A600B4B1B681B6807331B7818
:100B00001A1C0B4B1A600B4BFA22D2001A610949CE
:100B1000084A9023D3580122134390228B50BD469C
:100B200004B080BD140100200C0100201001002041
:100B3000D00000200000064080B500AF0C4B181C10
:100B4000FFF7ACFF0B490B4A9023D3580122934384
:100B500090228B50074B1022FF325A60054B054AFA
:100B600012681021FF310A431A60BD4680BDC0469D
:100B7000A08601000000064080B582B000AF78601A
:100B80007A68044B101C191C0822FFF7D1FEBD46E1
:100B900002B080BDDC00002080B500AF174B184AC2
:100BA000181C111C0822FFF7C3FE144B1B781A1CDB
:100BB00060231340202B06D0402B0DD0002B14D1E6
:100BC00000F0F6F818E00F4B1B68002B03D00D4B1C
:100BD0001B68984710E00FE00B4B1B68002B03D0FD
:100BE000094B1B68984707E006E00020FFF7B8FEB6
:100BF0000120FFF7B5FEC046BD4680BDDC000020E9
:100C0000000106400C0100200801002080B582B0E0
:100C100000AF00237B60634BDB797B607B681B024A
:100C20007B60604B9B791A1C7B689B187B605D4BDB
:100C3000DB78222B00D9ABE09A005B4BD3181B6802
:100C40009F467B68122B00D912237B60574B1B6891
:100C50001A687B68101C191C00F014FA002000218F
:100C600000F0DCFA9BE0514B1B685B6803331B7898
:100C70003B604E4B1B685B6802331B781A1C3B6859
:100C80001B02D3183B607A683B68934200D9131C5F
:100C90007B60464B1B685A687B68101C191C00F06F
:100CA000F1F90020002100F0B9FA78E07B68092B07
:100CB00000D909237B603D4B1B685B6812331A1C0B
:100CC0007B68101C191C00F0DDF90020002100F0E9
:100CD000A5FA64E0354B1B685A697B68101C191C27
:100CE00000F0D0F90020002100F098FA57E02D4BD9
:100CF0009B78002B11D17B68042B00D904237B60E7
:100D00002A4B1B689A687B68101C191C00F0BAF902
:100D10000020002100F082FA39E0224B9B78012B61
:100D200002D0022B16D02BE0204B1B68DB681B780F
:100D30007A68934200D9131C7B601C4B1B68DA68ED
:100D40007B68101C191C00F09DF90020002100F0A8
:100D500065FA1CE0154B1B681B691B787A68934287
:100D600000D9131C7B60114B1B681A697B68101C2F
:100D7000191C00F087F90020002100F04FFA06E06E
:100D80000020FFF7EDFD0120FFF7EAFDC04606E079
:100D90000020FFF7E5FD0120FFF7E2FDC046BD465C
:100DA00002B080BDDC000020FC180000140100200F
:100DB00090B583B000AFA44B00221A60A34B002271
:100DC0001A60A34B1B78DBB25BB2002B00DBB6E0F2
:100DD0009F4B5B78062B20D002DC002B38D0A6E09E
:100DE000082B02D00A2B1BD0A1E09A4B1B689A4A11
:100DF000944663441A1C994B1B68DBB21370984BE2
:100E0000974A126880210A431A60964B01221A60A1
:100E10000020002100F002FA90E0FFF7F7FE8DE0DD
:100E20008C4B1B688C4A944663441A1C8E4B1B687F
:100E3000DBB213708A4B8A4A126880210A431A6017
:100E4000884B01221A600020002100F0E7F975E0CC
:100E50007F4B1B78802B2FD1FB1D00221A70834BF8
:100E60001B685B6807331B781A1C4023134005D0AE
:100E7000FB1DFA1D127801210A431A707B4B1B6877
:100E80005B6807331B781A1C202313400AD0784B69
:100E90001B78DBB25B00DAB2FB1D1B781343DAB2BE
:100EA000FB1D1A706B4B1B686B4A944663441A1CFB
:100EB000FB1D1B78137025E0654B1B78812B07D138
:100EC000644B1B68644A9446634400221A7019E01C
:100ED0005F4B1B78822B15D15D4B1A79BB1D0F21FF
:100EE0000A401A705B4B1B685B4A944663441C1CA7
:100EF000BB1D1B78181CFFF79FFD031C5A1E934156
:100F0000DBB22370534B1B685A4A94466344002259
:100F10001A70534B524A126880210A431A60514B8F
:100F200002221A600020002100F078F906E000207B
:100F3000FFF716FD0120FFF713FDC04680E0444B8C
:100F40005B780B2B00D974E09A004B4BD3181B68CD
:100F50009F463F4B9B78002B08D13D4B1B790F22BE
:100F60001340DBB2181CFFF731FD06E0384B9B78CD
:100F7000012B02D13E4B00221A70394B384A1268BD
:100F800080210A431A60374B00221A6058E0304B28
:100F90009B781A1C394B1A60314B314A12688021F8
:100FA0000A431A602F4B00221A6049E0284B9B78B5
:100FB0001A1C2A4B1A602A4B294A126880210A43BC
:100FC0001A60284B00221A603AE0214B9B78002BD4
:100FD00008D11F4B1B790F221340DBB2181CFFF7FF
:100FE000BFFC06E01A4B9B78012B02D1204B01225B
:100FF0001A701B4B1A4A126880210A431A60194B57
:1010000000221A601CE0124B9B781A1C164B1A60C7
:101010001B4B1B68002B02D0194B1B689847104BC9
:101020000F4A126880210A431A600E4B00221A6090
:1010300006E00020FFF794FC0120FFF791FCC0467A
:10104000BD4603B090BDC046E8000020EC00002083
:10105000DC000020000506400001064000010020E1
:101060000805064004050640040100201401002084
:10107000E40000200101064088190000FC00002067
:101080001001002090B583B000AF78603960234B29
:101090001B683A689A4223D9204B1B687A68D21899
:1010A0001F4B1A601D4B1B683A68D21A1D4B1A6001
:1010B0001D4B1D4A126880210A431A601B4B1B6896
:1010C0001B4A9A18154B1B681C1C7B68101C191CAA
:1010D000221CFFF72DFC174A104B1B68136019E008
:1010E0000F4B00221A600F4B00221A600E4B0E4A63
:1010F000126880210A431A600C4B1B680C4A99182D
:101100003B687A68081C111C1A1CFFF711FC094B7C
:101110003A681A60BD4603B090BDC046D0000020BA
:10112000E8000020EC00002008050640000506400D
:10113000000106400405064080B500AF2E4B1B6839
:10114000002B3DD02C4B1A682C4B1B689A421FD9A0
:101150002B4B1B682B4A99182B4B1A68274B1B6883
:10116000081C111C1A1CFFF7E3FB284A234B1B68C1
:101170001360224B1A68244B1B689A18224B1A6082
:101180001E4B1A681C4B1B689A1A1B4B1A6030E0E6
:101190001B4B1B681B4A99181B4B1A68164B1B6884
:1011A000081C111C1A1CFFF7C3FB184A124B1B68C2
:1011B0001360154B00221A600F4B00221A6018E0D2
:1011C000134B1B78002B11D1114B5B78052B0DD1E4
:1011D000104B9A68104B1B689A4207D00D4B9B68C6
:1011E000002B03D10B4A0C4B1B689360074B00226A
:1011F0001A60BD4680BDC046EC000020D000002033
:101200000005064000010640E800002004050640F5
:10121000DC00002000000640FC00002080B582B009
:1012200000AF78603960084B7A681A60074B00227B
:101230001A60074B3A681A60064A074B1B6813602E
:10124000BD4602B080BDC046F0000020F400002082
:10125000F800002014050640D000002080B582B0C0
:1012600000AF174B1A68174B1B689A4224D2164BD3
:101270001B687B60154B1968154B1B68154A9A183B
:101280007B68081C111C1A1CFFF752FB0F4B1A68D5
:101290007B68D2180D4B1A60094B1A687B68D2180C
:1012A000074B1A60064B1A68064B1B689A4203D21A
:1012B000054A094B1B681360BD4602B080BDC0469D
:1012C000F4000020F800002014050640F000002083
:1012D0001005064000010640D000002080B500AF98
:1012E0000C4B00221A600C4B00221A600B4B0022A0
:1012F0001A600B4B00221A600A4B00221A600A4B3C
:10130000181C0021082200F0A9FA084B00229A605C
:10131000BD4680BDE8000020EC000020F000002069
:10132000F4000020F8000020DC000020000006404F
:1013300080B584B000AFF860B9607A6007E0FB6800
:101340005A1CFA60BA68511CB96012781A707B682E
:101350005A1E7A60002BF2D1BD4604B080BDC04653
:1013600080B586B000AF021CFB1D1A7000237B61A4
:1013700021E07B691B01134A944663443B613B694E
:101380001B68FB60FB680F221A40FB1D1B789A420A
:101390000ED17B691B010C4A944663443B613B6957
:1013A0001B68FB603B69FA6802210A431A6005E08A
:1013B0007B6901337B617B69072BDADDBD4606B0B3
:1013C00080BDC046080506400C05064080B500AF4C
:1013D000134B00229A61134B902292001A60124B19
:1013E00008221A60114B882292001A60104B0822C2
:1013F0001A60104B42221A600F4B48221A600F4BA2
:1014000023221A600E4B50221A600E4B20221A60C3
:101410000D4B44221A600D4B70221A60BD4680BDF0
:101420000000064008050640000506401805064075
:1014300010050640280506402005064038050640F0
:101440003005064034050640480506404005064084
:1014500080B582B000AF5B4B5B687B60594B1B690A
:101460000F2213403B607B680422134014D0554B7D
:1014700004225A60534B5B690122134006D0514B42
:10148000504A126990210A431A6105E04D4B4D4ABA
:10149000126980218A431A617B680122134022D09D
:1014A000484B01225A603B680122134007D0454B4C
:1014B000444A126990210A431A61FFF70FFF3B6803
:1014C0000222134005D03F4B3E4A126910218A4345
:1014D0001A613B680422134005D03A4B394A12691D
:1014E00090210A431A617B680222134064D07B6812
:1014F000002B11DA334B802212065A60324B324AEB
:10150000126801210A431A60304B304A12680121E7
:101510000A431A60FFF740FB7A6880235B0213409E
:1015200005D0284B802252025A60FFF705FE7A68E8
:1015300080239B02134005D0224B802292025A60E6
:10154000FFF78CFE7A688023DB02134005D01D4B29
:101550008022D2025A6000F03BF87A6880231B0395
:10156000134005D0174B802212035A6000F034F864
:101570007A6880235B03134003D0124B802252030E
:101580005A607A6880239B03134003D00D4B80225E
:1015900092035A607A688023DB03134003D0094B1F
:1015A0008022D2035A607A6880231B04134003D040
:1015B000044B802212045A60024B7A685A60BD467E
:1015C00002B080BD000006400C0506401C05064028
:1015D00080B500AFBD4680BD80B500AFBD4680BDC3
:1015E00080B582B000AF3B1C181CFFF7C5FA3B1C4E
:1015F0001B78DBB25BB2002B29DA3B1C5B78212B1A
:101600001DD13B1C1B79002B0BD1274B1B68274A94
:10161000944663441A1C264B101C191C0722FFF722
:1016200087FE244B234A126880210A431A60224B0A
:1016300007221A6000200021FFF7F0FD06E00020DD
:10164000FFF78EFE0120FFF78BFEC04629E03B1C12
:101650005B78202B0BD0222B1CD1164B154A12681D
:1016600080210A431A60144B00221A6019E03B1CC7
:101670001B79002B04D10E4B181C0721FFF7CEFD60
:101680000C4B0C4A126880210A431A600A4B002254
:101690001A6006E00020FFF763FE0120FFF760FEFE
:1016A000C046BD4602B080BD0005064000010640B0
:1016B000D400002008050640040506400022430827
:1016C0008B4274D303098B425FD3030A8B4244D30A
:1016D000030B8B4228D3030C8B420DD3FF2209024C
:1016E00012BA030C8B4202D31212090265D0030B0B
:1016F0008B4219D300E0090AC30B8B4201D3CB0301
:10170000C01A5241830B8B4201D38B03C01A524142
:10171000430B8B4201D34B03C01A5241030B8B4244
:1017200001D30B03C01A5241C30A8B4201D3CB022F
:10173000C01A5241830A8B4201D38B02C01A524114
:10174000430A8B4201D34B02C01A5241030A8B4217
:1017500001D30B02C01A5241CDD2C3098B4201D32F
:10176000CB01C01A524183098B4201D38B01C01AAD
:10177000524143098B4201D34B01C01A5241030924
:101780008B4201D30B01C01A5241C3088B4201D3D3
:10179000CB00C01A524183088B4201D38B00C01A80
:1017A000524143088B4201D34B00C01A5241411AA7
:1017B00000D20146524110467047FFE701B50020B4
:1017C00000F00CF802BDC0460029F7D003B5FFF7C2
:1017D00075FF0EBC4243891A1847C0467047C04681
:1017E00070B50F2A32D9041C0C430B1CA40731D14D
:1017F000151C041C103D2D0901352D0149191E68C9
:1018000026605E6866609E68A660DE681033E660EB
:1018100010349942F3D10F2345191340032B1BD9E0
:101820001C1F0023A4080134A400CE58EE5004333A
:10183000A342FAD1ED18C91803231A4005D000239A
:10184000CC5CEC5401339342FAD170BD051C002AE4
:10185000F5D1FAE7051CF2E71A1CF8E770B5830723
:101860003FD0541E002A3BD0CEB2031C032503E018
:10187000621E002C34D0141C01335A1E16702B42E9
:10188000F6D1032C24D9FF250D402A0215432A0442
:1018900015430F2C11D9261C103E3609013636018E
:1018A0001A1C9B19156055609560D56010329342E3
:1018B000F8D10F221440032C0AD9261FB60801368E
:1018C000B6001A1C9B1920C29342FCD1032214407B
:1018D000002C05D0C9B21C1919700133A342FBD1E9
:1018E00070BD141C031CCCE70102020400000000C0
:1018F000040000000C00000001020204900D000032
:10190000420C0000660C0000EE0C0000900D000080
:10191000900D0000900D0000900D0000900D000053
:10192000900D0000900D0000900D0000900D000043
:10193000900D0000900D0000900D0000900D000033
:10194000900D0000900D0000900D0000900D000023
:10195000900D0000900D0000900D0000900D000013
:10196000900D0000900D0000900D0000900D000003
:10197000900D0000900D0000900D0000900D0000F3
:10198000AC0C0000D40C000032100000520F00001C
:1019900032100000CA0F0000321000008E0F00004D
:1019A000321000003210000032100000AC0F0000B6
:0819B0003210000006100000D7
:1019B8001201000200000040160402B000010102FA
:1019C8000001000009024200020100C032080B00B9
:1019D80002020201000904000001020201000524BC
:1019E8000010010524010001070582030800010910
:1019F800040100020A000000070503022000010795
:101A080005840240000100000403090410034E008D
:101A1800750076006F0074006F006E00200355009B
:101A28005300420020004400450042007500470072
:101A38002000430020004100520044000000002024
:101A480014000020580000205C0000206C000020DA
:101A58000000000080F0FA023200000080F0FA0274
:101A6800001BB7000000000080F0FA0210270000F9
:101A7800000000000000000000000000008051018C
:0C1A88000800000000C20100000008007F
:00000001FF
